:100000000C945B000C94CB030C94E8030C948300D9
:100010000C9483000C9483000C9483000C94830054
:100020000C9483000C9483000C9483000C94830044
:100030000C9483000C9483000C9483000C94830034
:100040000C9405040C9483000C9407060C94830014
:100050000C9483000C9483000C9483000C94830014
:100060000C9483000C948300000024272A000025B0
:10007000282B000023262904040404040404040299
:100080000202020202030303030303010204081035
:100090002040800102040810200102040810200002
:1000A0000000070002010000030406000000000039
:1000B00000000000AA0211241FBECFEFD4E0DEBF73
:1000C000CDBF11E0A0E0B1E0E0E6FDE002C00590A8
:1000D0000D92AC36B107D9F712E0ACE6B1E001C041
:1000E0001D92AE30B107E1F710E0C6EBD0E004C0DE
:1000F0002297FE010E94AA06C43BD107C9F70E94BD
:10010000A3020C94AE060C940000CF93DF938130D1
:1001100079F08230C1F0C8E5D1E060E070E088811C
:100120000E940505229681E0C436D807B1F723C0A6
:1001300060E070E0809158010E94050560E070E089
:1001400080915E0116C060E070E080915A010E94CB
:10015000050560E070E080915C010E94050560E0AB
:1001600070E0809160010E94050560E070E0809180
:1001700062010E940505DF91CF9108956FEF70E055
:10018000809158010E9405056CE271E080E090E0EA
:100190000E94830460E070E0809158010E94050590
:1001A00068EC70E080E090E00E9483046FEF70E004
:1001B00080915E010E9405056CE271E080E090E0B4
:1001C0000E94830460E070E080915E010E9405055A
:1001D00068EC70E080E090E00E9483046FEF70E0D4
:1001E00080915A010E9405056CE271E080E090E088
:1001F0000E94830460E070E080915A010E9405052E
:1002000068EC70E080E090E00E9483046FEF70E0A3
:10021000809160010E9405056CE271E080E090E051
:100220000E94830460E070E0809160010E940505F7
:1002300068EC70E080E090E00E9483046FEF70E073
:1002400080915C010E9405056CE271E080E090E025
:100250000E94830460E070E080915C010E940505CB
:1002600068EC70E080E090E00E9483046FEF70E043
:10027000809162010E9405056CE271E080E090E0EF
:100280000E94830460E070E0809162010E94050595
:100290000895809154010E94E70426E132E0281B72
:1002A000390B3093710120937001809156010E94A7
:1002B000E70422ED31E0281B390B309373012093C2
:1002C000720160917001709171017093750160937A
:1002D000740177FF08C088279927861B970B909396
:1002E000750180937401309377012093760137FF75
:1002F00008C088279927821B930B909377018093DE
:10030000760188E791E00E94B3036AE171E088E733
:1003100091E00E94BA02609172017091730188E7C6
:1003200091E00E94BB0380917401909175010A973E
:1003300040F480917601909177010A9708F045C0CA
:10034000BCC0809170019091710118161906C4F417
:1003500081E00E9485002091700130917101C901F6
:10036000F3E0880F991FFA95E1F7821B930B865BE8
:100370009E4F6AE070E00E94580680915E0117C0AF
:1003800081E00E9485002091700130917101C901C6
:10039000E3E0880F991FEA95E1F7821B930B865BD8
:1003A0009E4F6AE070E00E945806809158010E94BA
:1003B00005058091740190917501C29730F46AE04F
:1003C00070E080E090E00E9483048091760190913B
:1003D00077010A9708F474C08091720190917301BB
:1003E0001816190674F582E00E94850020917201AA
:1003F00030917301C90173E0880F991F7A95E1F775
:10040000821B930B865B9E4F64E170E00E9458064E
:1004100080915A010E94050520917201309173016B
:10042000C90163E0880F991F6A95E1F7821B930B5E
:10043000865B9E4F64E170E00E94580680915C01EB
:100440002DC082E00E9485002091720130917301DD
:10045000C90153E0880F991F5A95E1F7821B930B4E
:10046000865B9E4F64E170E00E94580680916001B7
:100470000E9405052091720130917301C90143E08A
:10048000880F991F4A95E1F7821B930B865B9E4F5D
:1004900064E170E00E945806809162010E940505A7
:1004A0008091760190917701C29750F46AE070E0F4
:1004B00080E090E00E948304089580E00E9485001F
:1004C0000895CF93DF9340E051EE60E070E088E75D
:1004D00091E00E94B502C8E5D1E061E088810E9408
:1004E0005D05229681E0C436D807B9F70E947504ED
:1004F00060936C0170936D0180936E0190936F0116
:100500006EE171E088E791E00E94E90266E371E044
:1005100088E791E00E94BA0267E471E088E791E021
:100520000E94E9026DE371E088E791E00E94BA025F
:1005300060E571E088E791E00E94E9020E94BE0058
:10054000DF91CF9108950E94AD040E9461020E9444
:100550004901FDCF89E691E090937901809378017C
:100560000895862F0E94FF050895CB01BA010E94CD
:10057000C60508950F931F93CF93DF938C01EB0172
:1005800009C02196D801ED91FC910190F081E02DF8
:10059000C801099568816623A1F7DF91CF911F916A
:1005A0000F9108950F931F938C01DC01ED91FC9145
:1005B0000190F081E02D6DE00995D801ED91FC915D
:1005C0000190F081E02D6AE0C80109951F910F911B
:1005D00008950F931F938C010E94BA02C8010E94D4
:1005E000D2021F910F9108952F923F924F925F92E6
:1005F0006F927F928F929F92AF92BF92CF92DF9233
:10060000EF92FF920F931F93DF93CF93CDB7DEB797
:10061000A0970FB6F894DEBF0FBECDBF1C016A01D4
:100620007B01411551056105710549F4DC01ED912E
:10063000FC910190F081E02D60E3099554C088247D
:1006400099245401422E55246624772401E010E0B9
:100650000C0F1D1F080D191DC701B601A301920142
:100660000E946B06F80160830894811C911CA11CF8
:10067000B11CC701B601A30192010E946B06C9011A
:10068000DA016C017D01C114D104E104F104F1F639
:1006900081E0E82EF12CEC0EFD1EE80CF91C3E0169
:1006A0000894611C711CD501C4010197A109B1090D
:1006B0006C01C818D90814C0F601EE0DFF1D608149
:1006C0006A3010F4605D01C0695CD101ED91FC916C
:1006D0000190F081E02DC10109950894E108F1082D
:1006E0006E147F0449F7A0960FB6F894DEBF0FBED4
:1006F000CDBFCF91DF911F910F91FF90EF90DF90D1
:10070000CF90BF90AF909F908F907F906F905F90B1
:100710004F903F902F900895EF92FF920F931F9369
:10072000CF93DF93EC017A018B0177FF0FC0E88153
:10073000F9810190F081E02D6DE209951095009509
:10074000F094E094E11CF11C011D111D2AE0B80198
:10075000A701CE010E94F402DF91CF911F910F916A
:10076000FF90EF900895AB01662757FD6095762FB7
:100770000E948C0308950F931F938C01AB01662791
:1007800057FD6095762F0E948C03C8010E94D2020B
:100790001F910F9108951F920F920FB60F9211247F
:1007A0008F939F93EF93FF9380917A0190917B01B8
:1007B000892B29F0E0917A01F0917B010995FF9155
:1007C000EF919F918F910F900FBE0F901F901895F2
:1007D0001F920F920FB60F9211248F939F93EF9356
:1007E000FF9380917C0190917D01892B29F0E0910C
:1007F0007C01F0917D010995FF91EF919F918F917F
:100800000F900FBE0F901F9018951F920F920FB66A
:100810000F9211242F938F939F93AF93BF93809147
:100820007E0190917F01A0918001B091810101969C
:10083000A11DB11D80937E0190937F01A093800143
:10084000B09381018091820190918301A0918401F4
:10085000B09185018050904CAF4FBF4F8093820183
:1008600090938301A0938401B093850127C0809168
:10087000820190918301A0918401B09185018054FF
:100880009F41A040B0408093820190938301A09348
:100890008401B09385018091860190918701A09198
:1008A0008801B09189010196A11DB11D8093860137
:1008B00090938701A0938801B09389018091820170
:1008C00090918301A0918401B091850181549F4151
:1008D000A040B04060F6BF91AF919F918F912F9152
:1008E0000F900FBE0F901F9018958FB7F89420911E
:1008F00086013091870140918801509189018FBF15
:10090000B901CA010895EF92FF920F931F937B01E3
:100910008C018FB7F89440918601509187016091C6
:100920008801709189018FBF2FB7F894809186015B
:1009300090918701A0918801B09189012FBF841BFC
:10094000950BA60BB70BE816F9060A071B0760F70D
:100950001F910F91FF90EF900895789484B5826075
:1009600084BD84B5816084BD85B5826085BD85B553
:10097000816085BDEEE6F0E0808181608083E1E802
:10098000F0E0808182608083808181608083E0E804
:10099000F0E0808181608083E1EBF0E08081846021
:1009A0008083E0EBF0E0808181608083EAE7F0E023
:1009B0008081846080838081826080838081816087
:1009C00080838081806880831092C10008958F7039
:1009D000909164019295990F990F907C982B909328
:1009E0007C0080917A00806480937A0080917A0004
:1009F00086FDFCCF2091780040917900942F80E013
:100A000030E0282B392BC90108951F93CF93DF9332
:100A1000182FEB0161E00E945D05E12FF0E0E15647
:100A2000FF4F8491833051F48091800080688093DF
:100A30008000D0938900C09388003BC0843051F47B
:100A400080918000806280938000D0938B00C0935F
:100A50008A002FC0813039F4209729F184B580684D
:100A600084BDC7BD26C0823039F42097E1F084B53B
:100A7000806284BDC8BD1DC0863041F48091B00045
:100A800080688093B000C093B30013C0873041F4F6
:100A90008091B00080628093B000C093B40009C020
:100AA000C038D10514F460E001C061E0812F0E94DC
:100AB0007B05DF91CF911F910895282F30E0C90168
:100AC00085579F4FFC01949129583F4FF90184911C
:100AD000882381F0E82FF0E0E859FF4FE491F0E03F
:100AE000662329F4808190958923808308958081ED
:100AF000892B80830895482F50E0CA0181569F4F6B
:100B0000FC012491CA0185579F4FFC0194914958DB
:100B10005F4FFA0134913323C1F1222331F12330A5
:100B200021F4809180008F7705C0243031F48091CA
:100B300080008F7D8093800018C0213019F484B527
:100B40008F7704C0223021F484B58F7D84BD0DC021
:100B5000263021F48091B0008F7705C0273029F42A
:100B60008091B0008F7D8093B000E32FF0E0E359D7
:100B7000FF4FE491F0E0662329F48081909589236A
:100B8000808308958081892B80830895EF92FF925E
:100B90000F931F937B018C0122E030E040E050E096
:100BA0000E948D06205E3E45484F5F4FCA01B90145
:100BB000A80197010E948D06C901DA010197A109D8
:100BC000B109292F3A2F4B2F552747FD5A950196EA
:100BD000A11DB11D2093C50081508093C400E1EC9C
:100BE000F0E0808180618083808188608083808163
:100BF000806880831F910F91FF90EF900895982F48
:100C00008091C00085FFFCCF9093C60008951F928D
:100C10000F920FB60F9211242F933F934F935F9330
:100C20006F937F938F939F93AF93BF93EF93FF93B4
:100C30004091C600E0918A01F0918B01CF010196AD
:100C400060E870E00E9458069C0180918C019091B0
:100C50008D012817390739F0E257FE4F4083309352
:100C60008B0120938A01FF91EF91BF91AF919F91EA
:100C70008F917F916F915F914F913F912F910F9045
:100C80000FBE0F901F901895AA1BBB1B51E107C008
:100C9000AA1FBB1FA617B70710F0A61BB70B881F0C
:100CA000991F5A95A9F780959095BC01CD0108959B
:100CB00097FB092E07260AD077FD04D0E5DF06D082
:100CC00000201AF4709561957F4F0895F6F790957E
:100CD00081959F4F0895A1E21A2EAA1BBB1BFD010F
:100CE0000DC0AA1FBB1FEE1FFF1FA217B307E4070B
:100CF000F50720F0A21BB30BE40BF50B661F771F63
:100D0000881F991F1A9469F7609570958095909542
:100D10009B01AC01BD01CF01089597FB092E05266B
:100D20000ED057FD04D0D7DF0AD0001C38F4509500
:100D30004095309521953F4F4F4F5F4F0895F6F7FF
:100D400090958095709561957F4F8F4F9F4F089537
:100D5000EE0FFF1F0590F491E02D0994F894FFCF5A
:100D60006D61677320636C6561726564002E00308D
:100D7000006D4D61673A20000900202C20003D3DA8
:100D80003D3D2042616C616E6365205368697274F9
:100D9000203D3D3D3D00446174653A20005665723A
:100DA00073696F6E3A2000332E372E32303039009F
:100DB000302E3700040007000B000300050006007A
:0C0DC0000A0009000100000000B1020060
:00000001FF
