:100000000C9462000C948A000C948A000C948A0070
:100010000C948A000C948A000C948A000C948A0038
:100020000C948A000C948A000C948A000C948A0028
:100030000C948A000C948A000C948A000C948A0018
:100040000C94B7030C948A000C94C8050C948A0095
:100050000C948A000C948A000C948A000C948A00F8
:100060000C948A000C948A000000000024002700F1
:100070002A0000000000250028002B0000000000DE
:1000800023002600290004040404040404040202DA
:100090000202020203030303030301020408102007
:1000A0004080010204081020010204081020000012
:1000B0000007000201000003040600000000000029
:1000C0000000110711241FBECFEFD8E0DEBFCDBF67
:1000D00011E0A0E0B1E0ECE1F2E102C005900D9288
:1000E000AC32B107D9F712E0ACE2B1E001C01D9229
:1000F000AC30B107E1F710E0C4ECD0E004C02297C7
:10010000FE010E940809C23CD107C9F70E94B00352
:100110000C940C090C940000EF92FF920F931F9324
:10012000E0906001F0906101009162011091630123
:100130008091580190915901A0915A01B0915B01B1
:10014000E816F9060A071B07B0F580911E01682F13
:10015000669570E08091640190916501A0916601BF
:10016000B0916701A8019701281B390B4A0B5B0B63
:10017000CB01A0E0B0E082179307A407B507F8F41D
:1001800080912C0190912D016817790728F0109229
:100190002D0110922C0106C0861B970B90932D0108
:1001A00080932C01E0926401F09265010093660156
:1001B0001093670104C010922D0110922C018091C0
:1001C0005C0190915D01A0915E01B0915F01E81624
:1001D000F9060A071B07B0F580912001682F669584
:1001E00070E08091680190916901A0916A01B091DD
:1001F0006B01A8019701281B390B4A0B5B0BCB0144
:10020000A0E0B0E082179307A407B507F8F4809147
:100210002E0190912F016817790728F010922F0175
:1002200010922E0106C0861B970B90932F0180938E
:100230002E01E0926801F092690100936A01109327
:100240006B0104C010922F0110922E0160912E01BB
:1002500070912F0180911B010E947D0460912C01FF
:1002600070912D01809115010E947D0460912C01F7
:1002700070912D0189EF91E00E946B0889EF91E068
:1002800060E071E00E94820760912E0170912F0161
:1002900089EF91E00E9473081F910F91FF90EF90FA
:1002A00008958F929F92AF92BF92CF92DF92EF927A
:1002B000FF920F931F93CF93DF930E940B046093E1
:1002C00060017093610180936201909363010E94C9
:1002D0008C00C0E0D0E02FEF822E912C809119018C
:1002E00060E00E94F6048091130161E00E94F60430
:1002F0006AE070E080E090E00E94190480911101B2
:1003000061E020E432E44FE050E00E944305FE014A
:10031000E05DFE4F6083718382839383609134013B
:100320007091350180913601909137012091300113
:10033000309131014091320150913301620F731FAE
:10034000841F951F209138013091390140913A0165
:1003500050913B01620F731F841F951F23E030E013
:1003600040E050E00E94B50879018A01E0923C012A
:10037000F0923D0100933E0110933F012091400116
:10038000309141014091420150914301DA01C9018C
:1003900080529340A040B0408E159F05A007B10742
:1003A00008F44AC059016A01AE18BF08C00AD10A50
:1003B00089E8A81683E1B80680E0C80680E0D80680
:1003C00028F090922D0180922C0113C0A601950176
:1003D00099E056954795379527959A95D1F76FEF00
:1003E00070E080E090E00E94B50830932D012093EA
:1003F0002C01C601B5012AE030E040E050E00E9447
:10040000830870931E0160931D0180E090E02091AD
:100410006001309161014091620150916301620F6E
:10042000731F841F951F6093580170935901809327
:100430005A0190935B0113C020573E4F4F4F5F4FBF
:100440002E153F054007510790F480911D019091B2
:100450001E018456904090931E0180931D01E092EE
:100460004001F092410100934201109343018091B9
:10047000130160E00E94F6048091190161E00E947E
:10048000F6046AE070E080E090E00E941904809138
:10049000170161E020E432E44FE050E00E944305A0
:1004A000FE01EC5BFE4F60837183828393836091D6
:1004B00048017091490180914A0190914B0120912E
:1004C0004401309145014091460150914701620F2E
:1004D000731F841F951F20914C0130914D01409155
:1004E0004E0150914F01620F731F841F951F23E02F
:1004F00030E040E050E00E94B50879018A01E092C6
:100500005001F09251010093520110935301209138
:100510005401309155014091560150915701DA0133
:10052000C90180529340A040B0408E159F05A0079E
:10053000B10708F44AC059016A01AE18BF08C00AE1
:10054000D10A89E8A81683E1B80680E0C80680E0F1
:10055000D80628F090922F0180922E0113C0A60198
:10056000950189E056954795379527958A95D1F756
:100570006FEF70E080E090E00E94B50830932F01AB
:1005800020932E01C601B5012AE030E040E050E0A2
:100590000E9483087093200160931F0180E090E027
:1005A000209160013091610140916201509163019D
:1005B000620F731F841F951F60935C0170935D0130
:1005C00080935E0190935F0113C020573E4F4F4FC1
:1005D0005F4F2E153F054007510790F480911F0192
:1005E00090912001845690409093200180931F01A8
:1005F000E0925401F0925501009356011093570177
:100600002496CC30D10509F069CEDF91CF911F91AE
:100610000F91FF90EF90DF90CF90BF90AF909F90A1
:100620008F9008950F931F938091110160E00E94B5
:10063000D6048091170160E00E94D60480911301D6
:1006400061E00E94D6048091190161E00E94D60405
:1006500089EF91E040E855E260E070E00E94050615
:100660000E940B04609360017093610180936201AA
:100670009093630120911D0130911E0140E050E0F4
:10068000260F371F481F591F2093580130935901D7
:1006900040935A0150935B010FEF10E010932D012E
:1006A00000932C01809115016FEF70E00E947D0492
:1006B000209160013091610140916201509163018C
:1006C00080911F0190912001A0E0B0E0820F931F64
:1006D000A41FB51F80935C0190935D01A0935E0100
:1006E000B0935F0110932F0100932E0120936401BA
:1006F0003093650140936601509367012093680130
:100700003093690140936A0150936B0180911B0102
:100710006FEF70E00E947D040CC00E940B04609398
:1007200060017093610180936201909363010E9464
:100730008C0080912C0190912D01181619063CF423
:1007400080912E0190912F011816190634F389EF2C
:1007500091E062E071E00E94A1071F910F9108955E
:100760000E9443040E9412030E945101FDCF1F9278
:100770000F920FB60F9211242F933F934F935F93D5
:100780006F937F938F939F93AF93BF93209170014B
:100790003091710140917201509173017091740117
:1007A000DA01C9010296A11DB11D672F6A5F6D377D
:1007B00030F06D57DA01C9010396A11DB11D609398
:1007C00074018093700190937101A0937201B093B2
:1007D000730180916C0190916D01A0916E01B091B7
:1007E0006F010196A11DB11D80936C0190936D0165
:1007F000A0936E01B0936F01BF91AF919F918F91C4
:100800007F916F915F914F913F912F910F900FBE0C
:100810000F901F9018958FB7F89420917001309128
:10082000710140917201509173018FBFB901CA01EA
:100830000895EF92FF920F931F937B018C018FB766
:10084000F894409170015091710160917201709122
:1008500073018FBF2FB7F89480917001909171014F
:10086000A0917201B09173012FBF841B950BA60B51
:10087000B70BE816F9060A071B0760F71F910F91DF
:10088000FF90EF900895789484B5826084BD84B51C
:10089000816084BD85B5826085BD85B5816085BD7B
:1008A000EEE6F0E0808181608083E1E8F0E0808125
:1008B00082608083808181608083E0E8F0E08081D5
:1008C00081608083E1EBF0E0808184608083E0EBF5
:1008D000F0E0808181608083EAE7F0E080818460DD
:1008E0008083808182608083808181608083808139
:1008F000806880831092C10008951F93CF93DF9387
:10090000182FEB0161E00E94D604E12FF0E0E255E0
:10091000FF4F8491833051F48091800080688093F0
:100920008000D0938900C09388003CC0843051F48B
:1009300080918000806280938000D0938B00C09370
:100940008A0030C0813039F4209729F184B580685D
:1009500084BDC7BD27C0823039F42097E1F084B54B
:10096000806284BDC8BD1EC0863041F48091B00055
:1009700080688093B000C093B30014C0873041F406
:100980008091B00080628093B000C093B4000AC030
:10099000C038D1051CF4812F60E002C0812F61E0D6
:1009A0000E94F604DF91CF911F910895282F30E027
:1009B000C90186569F4FFC0194912A573F4FF90178
:1009C0008491882391F0E82FF0E0EE0FFF1FE859A3
:1009D000FF4FA591B491662329F48C9190958923BA
:1009E0008C9308958C91892B8C930895482F50E017
:1009F000CA0182559F4FFC012491CA0186569F4F20
:100A0000FC0194914A575F4FFA0134913323D1F19D
:100A1000222331F1233021F4809180008F7705C0AB
:100A2000243031F4809180008F7D8093800018C045
:100A3000213019F484B58F7704C0223021F484B5B5
:100A40008F7D84BD0DC0263021F48091B0008F775A
:100A500005C0273029F48091B0008F7D8093B000CD
:100A6000E32FF0E0EE0FFF1FEE58FF4FA591B4917A
:100A7000662329F48C91909589238C9308958C9109
:100A8000892B8C930895DF92EF92FF920F931F931F
:100A9000A82FB0E0CD0186569F4FFC01D490AA57F5
:100AA000BF4FFD018491662311F490E001C09D2D9C
:100AB00079018A0143E0EE0CFF1C001F111F4A95CB
:100AC000D1F734E016950795F794E7943A95D1F766
:100AD000682F70E0660F771F64587F4F20E030E08A
:100AE00040E050E0FB01A591B4910AC02E153F05EE
:100AF0004007510709F440C02F5F3F4F4F4F5F4FF2
:100B00008C918D21891791F30AC02E153F0540075E
:100B1000510791F12F5F3F4F4F4F5F4F03C0FB01D4
:100B2000A591B4918C918D21891779F720E030E05F
:100B300040E050E0FB01A591B49104C02F5F3F4F0E
:100B40004F4F5F4F8C918D218917C1F3CA01B901B5
:100B50002AE030E040E050E00E9483089B01AC01B5
:100B6000205F3F4F4F4F5F4F83E056954795379536
:100B700027958A95D1F704C020E030E040E050E0AE
:100B8000B901CA011F910F91FF90EF90DF90089576
:100B90001F920F920FB60F9211242F933F934F93F2
:100BA0005F936F937F938F939F93AF93BF93EF93D5
:100BB000FF934091C600E091F501F091F601CF015D
:100BC000019660E870E00E94A2089C018091F70104
:100BD0009091F8012817390739F0EB58FE4F408300
:100BE0003093F6012093F501FF91EF91BF91AF9102
:100BF0009F918F917F916F915F914F913F912F9135
:100C00000F900FBE0F901F9018955F926F927F927A
:100C10008F929F92AF92BF92CF92DF92EF92FF920C
:100C20000F931F93CF93DF93EC013A014B014132B5
:100C300081EA580787E0680780E078070CF07FC0FA
:100C400060E472E48FE090E0A40193010E94D70871
:100C50002150304040405040CA01B90122E030E00C
:100C600040E050E00E94D70859016A01A6019501B1
:100C7000209530954095509594E0220F331F441FE6
:100C8000551F9A95D1F760E072E18AE790E00E94E3
:100C9000D708CA01B9012FEF30E040E050E00E94D0
:100CA0008308A40193010E94D708C90181509F4F76
:100CB000181619061CF4522E5A9403C05524539446
:100CC000521A60E874E88EE190E0A40193010E945A
:100CD000D7082150304040405040CA01B90122E0BD
:100CE00030E040E050E00E94D708209530954095D4
:100CF000509583E0220F331F441F551F8A95D1F76B
:100D000060E072E18AE790E00E94D708CA01B90169
:100D10002FEF30E040E050E00E948308A4019301EF
:100D20000E94D708C90181509F4F181619061CF45C
:100D3000822F815002C081E0821B851500F5E88575
:100D4000F98581E090E00A8802C0880F991F0A9413
:100D5000E2F7808360E874E88EE190E0A4019301FB
:100D60000E94D7082150304040405040CA01B9018C
:100D700022E030E040E050E00E94D70804C0E8855F
:100D8000F98510829501EC81FD813083EE81FF8130
:100D90002083EA85FB85208141E050E0CA010E8472
:100DA00002C0880F991F0A94E2F7282B2083EA8556
:100DB000FB852081CA010F8402C0880F991F0A9405
:100DC000E2F7282B2083EA85FB858081088802C012
:100DD000440F551F0A94E2F7842B8083DF91CF9153
:100DE0001F910F91FF90EF90DF90CF90BF90AF9049
:100DF0009F908F907F906F905F900895FC01A085E9
:100E0000B18521898C9190E0022E02C0959587953D
:100E10000A94E2F780FFF6CF0484F585E02D608325
:100E2000089585E291E09093FA018093F90185E7B6
:100E300091E09093FC018093FB0185EC90E090930E
:100E4000FE018093FD0184EC90E09093000280937A
:100E5000FF0180EC90E0909302028093010281EC0C
:100E600090E0909304028093030286EC90E09093CC
:100E700006028093050284E08093070283E080935A
:100E8000080287E08093090285E080930A0281E0EE
:100E900080930B0208950F931F93CF93DF938C01E0
:100EA000EB0109C02196D801ED91FC910190F081F0
:100EB000E02DC801099568816623A1F7DF91CF91E4
:100EC0001F910F910895EF92FF920F931F93CF936D
:100ED000DF938C017B01EA010CC0D7016D917D018C
:100EE000D801ED91FC910190F081E02DC8010995A8
:100EF0002197209791F7DF91CF911F910F91FF904C
:100F0000EF900895DC01ED91FC910280F381E02DDA
:100F1000099508950F931F938C01DC01ED91FC91CD
:100F20000190F081E02D6DE00995D801ED91FC91E3
:100F30000190F081E02DC8016AE009951F910F91A1
:100F400008950F931F938C010E948207C8010E948D
:100F50008A071F910F9108952F923F924F925F92AF
:100F60006F927F928F929F92AF92BF92CF92DF92B9
:100F7000EF92FF920F931F93DF93CF93CDB7DEB71E
:100F8000A0970FB6F894DEBF0FBECDBF1C016A015B
:100F90007B01411551056105710549F4DC01ED91B5
:100FA000FC910190F081E02D60E3099554C0882404
:100FB00099245401422E55246624772401E010E040
:100FC0000C0F1D1F080D191DC701B601A3019201C9
:100FD0000E94B508F80160830894811C911CA11C33
:100FE000B11CC701B601A30192010E94B508C90155
:100FF000DA016C017D01C114D104E104F104F1F6C0
:1010000081E0E82EF12CEC0EFD1EE80CF91C3E01EF
:101010000894611C711CD501C4010197A109B10993
:101020006C01C818D90814C0F601EE0DFF1D6081CF
:101030006A3010F4605D01C0695CD101ED91FC91F2
:101040000190F081E02DC10109950894E108F108B3
:101050006E147F0449F7A0960FB6F894DEBF0FBE5A
:10106000CDBFCF91DF911F910F91FF90EF90DF9057
:10107000CF90BF90AF909F908F907F906F905F9038
:101080004F903F902F900895EF92FF920F931F93F0
:10109000CF93DF93EC017A018B0177FF0FC0E881DA
:1010A000F9810190F081E02D6DE209951095009590
:1010B000F094E094E11CF11C011D111DCE01B8015A
:1010C000A7012AE00E94AC07DF91CF911F910F91F9
:1010D000FF90EF900895AB01662757FD6095762F3E
:1010E0000E94440808950F931F938C01AB0166275B
:1010F00057FD6095762F0E944408C8010E948A0718
:101100001F910F910895629FD001739FF001829FFC
:10111000E00DF11D649FE00DF11D929FF00D839F86
:10112000F00D749FF00D659FF00D9927729FB00D23
:10113000E11DF91F639FB00DE11DF91FBD01CF0136
:101140001124089597FB092E07260AD077FD04D0B5
:1011500049D006D000201AF4709561957F4F08950C
:10116000F6F7909581959F4F0895A1E21A2EAA1B3C
:10117000BB1BFD010DC0AA1FBB1FEE1FFF1FA21747
:10118000B307E407F50720F0A21BB30BE40BF50B44
:10119000661F771F881F991F1A9469F760957095CD
:1011A000809590959B01AC01BD01CF01089597FBFF
:1011B000092E05260ED057FD04D0D7DF0AD0001C1B
:1011C00038F450954095309521953F4F4F4F5F4FE4
:1011D0000895F6F790958095709561957F4F8F4FA4
:1011E0009F4F0895AA1BBB1B51E107C0AA1FBB1F3D
:1011F000A617B70710F0A61BB70B881F991F5A95A3
:10120000A9F780959095BC01CD010895EE0FFF1FC1
:0C1210000590F491E02D0994F894FFCFB4
:10121C002C00446F6E65207769746820696E697460
:10122C0000070008000500040002000B0010271046
:0C123C002700000000FE064B07630700BF
:00000001FF
