:100000000C9462000C948A000C948A000C948A0070
:100010000C948A000C948A000C948A000C948A0038
:100020000C948A000C948A000C948A000C948A0028
:100030000C948A000C948A000C948A000C948A0018
:100040000C9449020C948A000C944C040C948A0081
:100050000C948A000C948A000C948A000C948A00F8
:100060000C948A000C948A000000000024002700F1
:100070002A0000000000250028002B0000000000DE
:1000800023002600290004040404040404040202DA
:100090000202020203030303030301020408102007
:1000A0004080010204081020010204081020000012
:1000B0000007000201000003040600000000000029
:1000C0000000950511241FBECFEFD8E0DEBFCDBFE5
:1000D00011E0A0E0B1E0ECE2F2E102C005900D9287
:1000E000A831B107D9F711E0A8E1B1E001C01D9234
:1000F000AC3DB107E1F710E0C4ECD0E004C02297BA
:10010000FE010E941009C23CD107C9F70E944202B9
:100110000C9414090C940000CF92DF92EF92FF929E
:100120000F931F93CF93DF93C0E0D0E08FEFC82EE3
:10013000D12C109219011092180180910A0160E0EF
:100140000E947A038091040161E00E947A036AE0D0
:1001500070E080E090E00E949D028091020161E0E9
:1001600020E432E44FE050E00E94C703FE01E45E69
:10017000FE4F60837183828393836091200170912D
:100180002101809122019091230120911C01309145
:100190001D0140911E0150911F01620F731F841FAA
:1001A000951F209124013091250140912601509105
:1001B0002701620F731F841F951F23E030E040E08A
:1001C00050E00E94BD0879018A01E0922801F09276
:1001D000290100932A0110932B018DEAE81684E18E
:1001E000F80680E0080780E0180728F4D09219018B
:1001F000C092180129C089EEE81684E4F80680E070
:10020000080780E0180728F01092190110921801D1
:100210001BC066277727CB016E197F09800B910BD6
:100220000E949A072AE037ED43EA5CE30E9428081F
:1002300020E030E840EB53E40E9405070E94690784
:100240007093190160931801609118017091190160
:10025000809106010E9401038091040160E00E94E8
:100260007A0380910A0161E00E947A036AE070E0FB
:1002700080E090E00E949D028091080161E020E40E
:1002800032E44FE050E00E94C703FE01E45DFE4F00
:100290006083718382839383609130017091310117
:1002A000809132019091330120912C0130912D01E8
:1002B00040912E0150912F01620F731F841F951FD3
:1002C0002091340130913501409136015091370130
:1002D000620F731F841F951F23E030E040E050E061
:1002E0000E94BD08209338013093390140933A01B0
:1002F00050933B016AE070E080E090E00E949D0234
:10030000209138013091390140913A0150913B01DF
:100310002D3A84E1380780E0480780E0580728F448
:10032000D0921B01C0921A0128C0293E84E43807EC
:1003300080E0480780E0580728F010921B011092D7
:100340001A011BC066277727CB01621B730B840B36
:10035000950B0E949A072AE037ED43EA5CE30E947E
:10036000280820E030E840EB53E40E9405070E9493
:10037000690770931B0160931A0160911A017091D3
:100380001B0180910C010E940103409128015091B2
:10039000290160912A0170912B0189EC91E02AE0FA
:1003A00030E00E94E40689EC91E060E071E00E9498
:1003B0000606409138015091390160913A017091DF
:1003C0003B0189EC91E02AE030E00E94F906249696
:1003D000CC30D10509F0ADCEDF91CF911F910F91B7
:1003E000FF90EF90DF90CF9008958091020160E040
:1003F0000E945A038091080160E00E945A03809194
:10040000040161E00E945A0380910A0161E00E94A8
:100410005A0310921C0110921D0110921E0110929D
:100420001F0110922C0110922D0110922E0110929A
:100430002F0110922001109221011092220110929E
:10044000230110923001109231011092320110926A
:10045000330110922401109225011092260110926E
:10046000270110923401109235011092360110923A
:10047000370189EC91E040E855E260E070E00E94CD
:10048000890408950E94C7020E94F5010E948C0011
:10049000FDCF1F920F920FB60F9211242F933F930F
:1004A0004F935F936F937F938F939F93AF93BF937C
:1004B000209140013091410140914201509143010E
:1004C00070914401DA01C9010296A11DB11D672F87
:1004D0006A5F6D3730F06D57DA01C9010396A11DCF
:1004E000B11D609344018093400190934101A0931A
:1004F0004201B093430180913C0190913D01A09154
:100500003E01B0913F010196A11DB11D80933C01B8
:1005100090933D01A0933E01B0933F01BF91AF91F5
:100520009F918F917F916F915F914F913F912F910B
:100530000F900FBE0F901F901895EF92FF920F93A0
:100540001F937B018C018FB7F8944091400150912B
:10055000410160914201709143018FBF2FB7F89420
:100560008091400190914101A0914201B0914301DD
:100570002FBF841B950BA60BB70BE816F9060A07CD
:100580001B0760F71F910F91FF90EF9008957894EB
:1005900084B5826084BD84B5816084BD85B5826088
:1005A00085BD85B5816085BDEEE6F0E08081816026
:1005B0008083E1E8F0E080818260808380818160D7
:1005C0008083E0E8F0E0808181608083E1EBF0E00F
:1005D000808184608083E0EBF0E0808181608083B3
:1005E000EAE7F0E08081846080838081826080839C
:1005F0008081816080838081806880831092C100C7
:1006000008951F93CF93DF93182FEB0161E00E94B1
:100610005A03E12FF0E0E255FF4F8491833051F40B
:1006200080918000806880938000D0938900C0937F
:1006300088003CC0843051F48091800080628093B7
:100640008000D0938B00C0938A0030C0813039F491
:10065000209729F184B5806884BDC7BD27C082304A
:1006600039F42097E1F084B5806284BDC8BD1EC016
:10067000863041F48091B00080688093B000C093D0
:10068000B30014C0873041F48091B0008062809341
:10069000B000C093B4000AC0C038D1051CF4812F4B
:1006A00060E002C0812F61E00E947A03DF91CF9168
:1006B0001F910895282F30E0C90186569F4FFC01F5
:1006C00094912A573F4FF9018491882391F0E82FA4
:1006D000F0E0EE0FFF1FE859FF4FA591B49166239C
:1006E00029F48C91909589238C9308958C91892B72
:1006F0008C930895482F50E0CA0182559F4FFC010A
:100700002491CA0186569F4FFC0194914A575F4F2E
:10071000FA0134913323D1F1222331F1233021F432
:10072000809180008F7705C0243031F48091800063
:100730008F7D8093800018C0213019F484B58F77A5
:1007400004C0223021F484B58F7D84BD0DC02630D5
:1007500021F48091B0008F7705C0273029F4809173
:10076000B0008F7D8093B000E32FF0E0EE0FFF1F0D
:10077000EE58FF4FA591B491662329F48C91909582
:1007800089238C9308958C91892B8C930895DF9203
:10079000EF92FF920F931F93A82FB0E0CD018656E2
:1007A0009F4FFC01D490AA57BF4FFD01849166234F
:1007B00011F490E001C09D2D79018A0143E0EE0C17
:1007C000FF1C001F111F4A95D1F734E016950795BD
:1007D000F794E7943A95D1F7682F70E0660F771F8A
:1007E00064587F4F20E030E040E050E0FB01A591ED
:1007F000B4910AC02E153F054007510709F440C0C7
:100800002F5F3F4F4F4F5F4F8C918D21891791F391
:100810000AC02E153F054007510791F12F5F3F4F4A
:100820004F4F5F4F03C0FB01A591B4918C918D2177
:10083000891779F720E030E040E050E0FB01A59116
:10084000B49104C02F5F3F4F4F4F5F4F8C918D216C
:100850008917C1F3CA01B9012AE030E040E050E055
:100860000E948B089B01AC01205F3F4F4F4F5F4FB1
:1008700083E056954795379527958A95D1F704C01B
:1008800020E030E040E050E0B901CA011F910F9133
:10089000FF90EF90DF9008951F920F920FB60F9286
:1008A00011242F933F934F935F936F937F938F9375
:1008B0009F93AF93BF93EF93FF934091C600E09156
:1008C000C501F091C601CF01019660E870E00E9479
:1008D000AA089C018091C7019091C8012817390787
:1008E00039F0EB5BFE4F40833093C6012093C50186
:1008F000FF91EF91BF91AF919F918F917F916F91F8
:100900005F914F913F912F910F900FBE0F901F90CD
:1009100018955F926F927F928F929F92AF92BF9243
:10092000CF92DF92EF92FF920F931F93CF93DF93BB
:10093000EC013A014B01413281EA580787E0680730
:1009400080E078070CF07FC060E472E48FE090E014
:10095000A40193010E94DF082150304040405040E4
:10096000CA01B90122E030E040E050E00E94DF0817
:1009700059016A01A6019501209530954095509541
:1009800094E0220F331F441F551F9A95D1F760E062
:1009900072E18AE790E00E94DF08CA01B9012FEFF7
:1009A00030E040E050E00E948B08A40193010E94D7
:1009B000DF08C90181509F4F181619061CF4522EEA
:1009C0005A9403C055245394521A60E874E88EE197
:1009D00090E0A40193010E94DF0821503040404084
:1009E0005040CA01B90122E030E040E050E00E94EE
:1009F000DF08209530954095509583E0220F331FF6
:100A0000441F551F8A95D1F760E072E18AE790E0B4
:100A10000E94DF08CA01B9012FEF30E040E050E04A
:100A20000E948B08A40193010E94DF08C901815034
:100A30009F4F181619061CF4822F815002C081E0C6
:100A4000821B851500F5E885F98581E090E00A882C
:100A500002C0880F991F0A94E2F7808360E874E867
:100A60008EE190E0A40193010E94DF082150304004
:100A700040405040CA01B90122E030E040E050E07F
:100A80000E94DF0804C0E885F98510829501EC8199
:100A9000FD813083EE81FF812083EA85FB85208103
:100AA00041E050E0CA010E8402C0880F991F0A94E9
:100AB000E2F7282B2083EA85FB852081CA010F8479
:100AC00002C0880F991F0A94E2F7282B2083EA8539
:100AD000FB858081088802C0440F551F0A94E2F705
:100AE000842B8083DF91CF911F910F91FF90EF9026
:100AF000DF90CF90BF90AF909F908F907F906F903E
:100B00005F900895FC01A085B18521898C9190E0CA
:100B1000022E02C0959587950A94E2F780FFF6CFE2
:100B20000484F585E02D6083089582E191E090933F
:100B3000CA018093C90185E491E09093CC01809330
:100B4000CB0185EC90E09093CE018093CD0184ECB5
:100B500090E09093D0018093CF0180EC90E090934F
:100B6000D2018093D10181EC90E09093D4018093E5
:100B7000D30186EC90E09093D6018093D50184E078
:100B80008093D70183E08093D80187E08093D901D7
:100B900085E08093DA0181E08093DB0108950F9373
:100BA0001F93CF93DF938C01EB0109C02196D801ED
:100BB000ED91FC910190F081E02DC80109956881CB
:100BC0006623A1F7DF91CF911F910F910895EF92C6
:100BD000FF920F931F93CF93DF938C017B01EA0168
:100BE0000CC0D7016D917D01D801ED91FC91019070
:100BF000F081E02DC80109952197209791F7DF91A9
:100C0000CF911F910F91FF90EF900895DC01ED912E
:100C1000FC910280F381E02D099508950F931F93B5
:100C20008C01DC01ED91FC910190F081E02D6DE0F3
:100C30000995D801ED91FC910190F081E02DC8015A
:100C40006AE009951F910F9108952F923F924F925C
:100C50005F926F927F928F929F92AF92BF92CF924C
:100C6000DF92EF92FF920F931F93DF93CF93CDB755
:100C7000DEB7A0970FB6F894DEBF0FBECDBF1C0144
:100C80006A017B01411551056105710549F4DC01DB
:100C9000ED91FC910190F081E02D60E3099554C045
:100CA000882499245401422E55246624772401E097
:100CB00010E00C0F1D1F080D191DC701B601A3017F
:100CC00092010E94BD08F80160830894811C911C68
:100CD000A11CB11CC701B601A30192010E94BD086D
:100CE000C901DA016C017D01C114D104E104F104F0
:100CF000F1F681E0E82EF12CEC0EFD1EE80CF91C5B
:100D00003E010894611C711CD501C4010197A10921
:100D1000B1096C01C818D90814C0F601EE0DFF1D09
:100D200060816A3010F4605D01C0695CD101ED91B1
:100D3000FC910190F081E02DC10109950894E10832
:100D4000F1086E147F0449F7A0960FB6F894DEBF41
:100D50000FBECDBFCF91DF911F910F91FF90EF900C
:100D6000DF90CF90BF90AF909F908F907F906F90CB
:100D70005F904F903F902F900895EF92FF920F93C6
:100D80001F93CF93DF93EC017A018B0177FF0FC0A4
:100D9000E881F9810190F081E02D6DE209951095CF
:100DA0000095F094E094E11CF11C011D111DCE0191
:100DB000B801A7012AE00E942506DF91CF911F917B
:100DC0000F91FF90EF900895DC012115310541F45A
:100DD000ED91FC910190F081E02D642F099508952B
:100DE0002A30310519F40E94BD0608950E94250697
:100DF00008950F931F938C010E94E406C8010E947E
:100E00000E061F910F9108955058BB27AA270ED0A8
:100E1000E5C0D6D030F0DBD020F031F49F3F11F4A4
:100E20001EF4CBC00EF4E095E7FBC1C0E92FE7D07C
:100E300080F3BA17620773078407950718F071F4F7
:100E40009EF5FFC00EF4E0950B2EBA2FA02D0B01DE
:100E5000B90190010C01CA01A0011124FF27591BFF
:100E600099F0593F50F4503E68F11A16F040A22F05
:100E7000232F342F4427585FF3CF46953795279576
:100E8000A795F0405395C9F77EF41F16BA0B620B75
:100E9000730B840BBAF09150A1F0FF0FBB1F661FBC
:100EA000771F881FC2F70EC0BA0F621F731F841FFF
:100EB00048F4879577956795B795F7959E3F08F025
:100EC000B3CF9395880F08F09927EE0F97958795E4
:100ED000089504D06894B111B5C0089598D088F0F1
:100EE0009F5790F0B92F9927B751A0F0D1F0660F16
:100EF000771F881F991F1AF0BA95C9F712C0B13031
:100F000081F09FD0B1E008959CC0672F782F88278B
:100F1000B85F39F0B93FCCF3869577956795B3956F
:100F2000D9F73EF490958095709561957F4F8F4FDE
:100F30009F4F0895E89409C097FB3EF490958095E3
:100F4000709561957F4F8F4F9F4F9923A9F0F92F8F
:100F500096E9BB279395F695879577956795B7950D
:100F6000F111F8CFFAF4BB0F11F460FF1BC06F5FF3
:100F70007F4F8F4F9F4F16C0882311F096E911C005
:100F8000772321F09EE8872F762F05C0662371F026
:100F900096E8862F70E060E02AF09A95660F771F3A
:100FA000881FDAF7880F9695879597F9089597F92E
:100FB0009F6780E870E060E008959FEF80EC0895FF
:100FC00000240A9416161706180609060895002428
:100FD0000A9412161306140605060895092E0394A2
:100FE000000C11F4882352F0BB0F40F4BF2B11F416
:100FF00060FF04C06F5F7F4F8F4F9F4F089557FD75
:101000009058440F551F59F05F3F71F04795880F76
:1010100097FB991F61F09F3F79F08795089512160D
:1010200013061406551FF2CF4695F1DF08C01616B9
:1010300017061806991FF1CF86957105610508946A
:101040000895E894BB2766277727CB0197F9089581
:101050000BD0C4CFB5DF28F0BADF18F0952309F024
:10106000A6CFABCF1124EECFCADFA0F3959FD1F36B
:10107000950F50E0551F629FF001729FBB27F00D46
:10108000B11D639FAA27F00DB11DAA1F649F66279B
:10109000B00DA11D661F829F2227B00DA11D621FEA
:1010A000739FB00DA11D621F839FA00D611D221FA4
:1010B000749F3327A00D611D231F849F600D211D88
:1010C000822F762F6A2F11249F5750408AF0E1F02B
:1010D00088234AF0EE0FFF1FBB1F661F771F881F74
:1010E00091505040A9F79E3F510570F060CFAACFB4
:1010F0005F3FECF3983EDCF3869577956795B7955F
:10110000F795E7959F5FC1F7FE2B880F911D969588
:10111000879597F90895629FD001739FF001829F90
:10112000E00DF11D649FE00DF11D929FF00D839F76
:10113000F00D749FF00D659FF00D9927729FB00D13
:10114000E11DF91F639FB00DE11DF91FBD01CF0126
:101150001124089597FB092E07260AD077FD04D0A5
:1011600049D006D000201AF4709561957F4F0895FC
:10117000F6F7909581959F4F0895A1E21A2EAA1B2C
:10118000BB1BFD010DC0AA1FBB1FEE1FFF1FA21737
:10119000B307E407F50720F0A21BB30BE40BF50B34
:1011A000661F771F881F991F1A9469F760957095BD
:1011B000809590959B01AC01BD01CF01089597FBEF
:1011C000092E05260ED057FD04D0D7DF0AD0001C0B
:1011D00038F450954095309521953F4F4F4F5F4FD4
:1011E0000895F6F790958095709561957F4F8F4F94
:1011F0009F4F0895AA1BBB1B51E107C0AA1FBB1F2D
:10120000A617B70710F0A61BB70B881F991F5A9592
:10121000A9F780959095BC01CD010895EE0FFF1FB1
:0C1220000590F491E02D0994F894FFCFA4
:10122C002C00070008000500040002000B00000061
:08123C0000008205CF05E70563
:00000001FF
