:100000000C9462000C948A000C948A000C948A0070
:100010000C948A000C948A000C948A000C948A0038
:100020000C948A000C948A000C948A000C948A0028
:100030000C948A000C948A000C948A000C948A0018
:100040000C944C050C948A000C945D070C948A0067
:100050000C948A000C948A000C948A000C948A00F8
:100060000C948A000C948A000000000024002700F1
:100070002A0000000000250028002B0000000000DE
:1000800023002600290004040404040404040202DA
:100090000202020203030303030301020408102007
:1000A0004080010204081020010204081020000012
:1000B0000007000201000003040600000000000029
:1000C0000000A60811241FBECFEFD8E0DEBFCDBFD1
:1000D00011E0A0E0B1E0E6E8F5E102C005900D9284
:1000E000AC32B107D9F712E0ACE2B1E001C01D9229
:1000F000A538B107E1F710E0C4ECD0E004C02297C6
:10010000FE010E94BD0AC23CD107C9F70E94450505
:100110000C94C10A0C9400006F927F928F929F9270
:10012000AF92BF92CF92DF92EF92FF920F931F9305
:100130008B019C017A018091E3019091E401019689
:100140006DE070E00E94570AFC019093E4018093F7
:10015000E301EE0FFF1FEE0FFF1FEE0DFF1D0083EB
:10016000118322833383D701E9ECF1E08D919C91D7
:10017000119781939193149681E0E33EF807B1F7CC
:1001800013C02081318182819381821793072CF4DF
:10019000338322839183808340E0329681E0E13E85
:1001A000F80779F7413021F0E9ECF1E041E0E9CFDF
:1001B00080913301909134017C0100E010E0809146
:1001C0003101909132013C0188249924F701EE0F0E
:1001D000FF1FE753FE4FAA24BB24650120E030E057
:1001E00040E050E014C081919191AA2797FDA0951D
:1001F000BA2F280F391F4A1F5B1F0894A11CB11C7E
:10020000C11CD11C0894E11CF11C011D111DE61438
:10021000F7040805190538F3CA01B901A6019501CB
:100220000E946A0ACA01B9011F910F91FF90EF90D5
:10023000DF90CF90BF90AF909F908F907F906F9006
:100240000895AF92BF92CF92DF92EF92FF920F93F9
:100250001F93E090A901F090AA010091AB011091C9
:10026000AC0120E1E21627E2F20620E0020720E0DE
:100270001207F0F480912C0190912D014197C4F464
:100280002091C1013091C2014091C3015091C4013C
:100290008091BD019091BE01A091BF01B091C001BC
:1002A000281739074A075B0718F480E190E074C00B
:1002B000A090BD01B090BE01C090BF01D090C00120
:1002C0008091B5019091B601A091B701B091B801AC
:1002D000A816B906CA06DB0608F056C080911E01B2
:1002E000682F669570E08091C1019091C201A09144
:1002F000C301B091C401A6019501281B390B4A0B1B
:100300005B0BCB01A0E0B0E082179307A407B50711
:1003100008F04BC080912C0190912D01681779074E
:1003200098F020E1E21627E2F20620E0020720E042
:100330001207D8F01816190614F4059718C0109271
:100340002D0110922C0117C0861B970B90932D0145
:1003500080932C0140977CF480E1E81687E2F80650
:1003600080E0080780E0180730F480E190E0909387
:100370002D0180932C01A092C101B092C201C092C4
:10038000C301D092C40111C080912C0190912D0124
:100390008230910534F0059790932D0180932C01C4
:1003A00004C010922D0110922C01E090B101F09048
:1003B000B2010091B3011091B40120E1E21627E2ED
:1003C000F20620E0020720E01207F0F480912E01EF
:1003D00090912F014197C4F42091C5013091C6013D
:1003E0004091C7015091C8018091BD019091BE011B
:1003F000A091BF01B091C001281739074A075B07D8
:1004000018F480E190E074C0A090BD01B090BE01EE
:10041000C090BF01D090C0018091B9019091BA0104
:10042000A091BB01B091BC01A816B906CA06DB06B3
:1004300008F056C080912001682F669570E0809189
:10044000C5019091C601A091C701B091C801A60154
:100450009501281B390B4A0B5B0BCB01A0E0B0E0E8
:1004600082179307A407B50708F04BC080912E01AF
:1004700090912F016817790798F020E1E21627E2A2
:10048000F20620E0020720E01207D8F0181619063D
:1004900014F4059718C010922F0110922E0117C066
:1004A000861B970B90932F0180932E0140977CF42D
:1004B00080E1E81687E2F80680E0080780E0180788
:1004C00030F480E190E090932F0180932E01A09270
:1004D000C501B092C601C092C701D092C80111C037
:1004E00080912E0190912F018230910534F0059773
:1004F00090932F0180932E0104C010922F0110922F
:100500002E0160912E0170912F0177FF03C070952D
:1005100061957F4F70932F0160932E0180912C0184
:1005200090912D0197FF03C0909581959F4F9093D7
:100530002D0180932C0180911B010E941206609175
:100540002C0170912D01809115010E94120660917D
:100550002C0170912D0182E792E00E94000A82E74F
:1005600092E060E071E00E94170960912E017091A5
:100570002F0182E792E00E94080A1F910F91FF90DD
:10058000EF90DF90CF90BF90AF900895EF92FF92E1
:100590000F931F930E94A0056093BD017093BE014D
:1005A0008093BF019093C0010E942101809130018E
:1005B00090E001966DE070E00E94570A8093300150
:1005C0008091190160E00E948B068091130161E027
:1005D0000E948B0666E470E080E090E00E94AE0529
:1005E0008091110161E020ED3BEF41E050E00E947D
:1005F000D8066093690170936A0180936B019093B0
:100600006C01615D7B4F8140904060F080ED9BEF1D
:10061000A1E0B0E08093690190936A01A0936B011F
:10062000B0936C016091690170916A0180916B01D6
:1006300090916C0145E351E00E948C007B018C019C
:100640006093A5017093A6018093A7019093A801E0
:100650002091A9013091AA014091AB015091AC01C8
:10066000261737074807590709F44DC0DA01C901B1
:100670008E199F09A00BB10B895E9340A040B0403A
:1006800078F12E153F054007510758F480911D0160
:1006900090911E018456904090931E0180931D01FD
:1006A00016C081E1E81687E2F80680E0080780E0DE
:1006B000180738F080912C0190912D018C599F4F93
:1006C00002C08FEF90E090932D0180932C01E09277
:1006D000A901F092AA010093AB011093AC0128C0CC
:1006E0002E153F054007510770F480911D01909130
:1006F0001E01C29790931E0180931D012C593F4FFC
:100700004F4F5F4F0DC080911D0190911E01C29609
:1007100090931E0180931D0124563040404050406C
:100720002093A9013093AA014093AB015093AC01EF
:100730008091130160E00E948B068091190161E0B5
:100740000E948B0666E470E080E090E00E94AE05B7
:100750008091170161E020ED3BEF41E050E00E9405
:10076000D8066093A1017093A2018093A301909396
:10077000A401615D7B4F8140904060F080ED9BEF74
:10078000A1E0B0E08093A1019093A201A093A30106
:10079000B093A4016091A1017091A2018091A30185
:1007A0009091A4014DE651E00E948C007B018C01E8
:1007B0006093AD017093AE018093AF019093B0014F
:1007C0002091B1013091B2014091B3015091B40137
:1007D000261737074807590709F44DC0DA01C90140
:1007E0008E199F09A00BB10B895E9340A040B040C9
:1007F00078F12E153F054007510758F480911F01ED
:1008000090912001845690409093200180931F0185
:1008100016C081E1E81687E2F80680E0080780E06C
:10082000180738F080912E0190912F018C599F4F1D
:1008300002C08FEF90E090932F0180932E01E09201
:10084000B101F092B2010093B3011093B40128C03A
:100850002E153F054007510770F480911F019091BC
:100860002001C2979093200180931F012C593F4F84
:100870004F4F5F4F0DC080911F0190912001C29694
:100880009093200180931F012456304040405040F7
:100890002093B1013093B2014093B3015093B4015E
:1008A0004091A9015091AA016091AB017091AC01F6
:1008B00082E792E02AE030E00E94180A82E792E0A4
:1008C00060E071E00E9417094091B1015091B201BE
:1008D0006091B3017091B40182E792E02AE030E0C8
:1008E0000E942D0A1F910F91FF90EF9008950F9392
:1008F0001F938091110160E00E946B0680911701A7
:1009000060E00E946B068091130161E00E946B061B
:100910008091190161E00E946B0682E792E040E855
:1009200055E260E070E00E949A070E94A005609383
:10093000BD017093BE018093BF019093C0012091CF
:100940001D0130911E0140E050E0260F371F481F67
:10095000591F2093B5013093B6014093B7015093CE
:10096000B8010FEF10E010932D0100932C0180913E
:1009700015016FEF70E00E9412062091BD013091C9
:10098000BE014091BF015091C00180911F01909123
:100990002001A0E0B0E0820F931FA41FB51F809339
:1009A000B9019093BA01A093BB01B093BC0110931D
:1009B0002F0100932E012093C1013093C201409377
:1009C000C3015093C4012093C5013093C6014093E5
:1009D000C7015093C80180E395E7A0E0B0E08093A1
:1009E000A9019093AA01A093AB01B093AC018093AD
:1009F000B1019093B201A093B301B093B40180917F
:100A00001B016FEF70E00E9412060CC00E94A0054F
:100A10006093BD017093BE018093BF019093C001AC
:100A20000E94210180912C0190912D011816190628
:100A30003CF480912E0190912F011816190634F381
:100A400081E090E090933401809333018CE090E05A
:100A5000909332018093310182E792E062E071E08D
:100A60000E9436091092A9011092AA011092AB01BE
:100A70001092AC011092B1011092B2011092B30128
:100A80001092B4011F910F9108950E94D8050E9401
:100A900077040E94C602FDCF1F920F920FB60F92ED
:100AA00011242F933F934F935F936F937F938F9373
:100AB0009F93AF93BF932091E9013091EA01409158
:100AC000EB015091EC017091ED01DA01C901029640
:100AD000A11DB11D672F6A5F6D3730F06D57DA01C8
:100AE000C9010396A11DB11D6093ED018093E90139
:100AF0009093EA01A093EB01B093EC018091E501A2
:100B00009091E601A091E701B091E8010196A11D45
:100B1000B11D8093E5019093E601A093E701B093A6
:100B2000E801BF91AF919F918F917F916F915F91FC
:100B30004F913F912F910F900FBE0F901F901895DE
:100B40008FB7F8942091E9013091EA014091EB01CF
:100B50005091EC018FBFB901CA010895EF92FF9245
:100B60000F931F937B018C018FB7F8944091E9019B
:100B70005091EA016091EB017091EC018FBF2FB7AA
:100B8000F8948091E9019091EA01A091EB01B09174
:100B9000EC012FBF841B950BA60BB70BE816F906CB
:100BA0000A071B0760F71F910F91FF90EF900895C0
:100BB000789484B5826084BD84B5816084BD85B538
:100BC000826085BD85B5816085BDEEE6F0E08081FF
:100BD00081608083E1E8F0E08081826080838081B1
:100BE00081608083E0E8F0E0808181608083E1EBD8
:100BF000F0E0808184608083E0EBF0E080818160C0
:100C00008083EAE7F0E08081846080838081826075
:100C1000808380818160808380818068808310925E
:100C2000C10008951F93CF93DF93182FEB0161E06C
:100C30000E946B06E12FF0E0E255FF4F8491833074
:100C400051F480918000806880938000D093890067
:100C5000C09388003CC0843051F480918000806251
:100C600080938000D0938B00C0938A0030C0813085
:100C700039F4209729F184B5806884BDC7BD27C0A9
:100C8000823039F42097E1F084B5806284BDC8BD1C
:100C90001EC0863041F48091B00080688093B0001F
:100CA000C093B30014C0873041F48091B0008062DB
:100CB0008093B000C093B4000AC0C038D1051CF4C2
:100CC000812F60E002C0812F61E00E948B06DF91DE
:100CD000CF911F910895282F30E0C90186569F4F6C
:100CE000FC0194912A573F4FF9018491882391F098
:100CF000E82FF0E0EE0FFF1FE859FF4FA591B491E8
:100D0000662329F48C91909589238C9308958C9176
:100D1000892B8C930895482F50E0CA0182559F4F2C
:100D2000FC012491CA0186569F4FFC0194914A57B9
:100D30005F4FFA0134913323D1F1222331F1233073
:100D400021F4809180008F7705C0243031F48091A8
:100D500080008F7D8093800018C0213019F484B505
:100D60008F7704C0223021F484B58F7D84BD0DC0FF
:100D7000263021F48091B0008F7705C0273029F408
:100D80008091B0008F7D8093B000E32FF0E0EE0FF4
:100D9000FF1FEE58FF4FA591B491662329F48C9163
:100DA000909589238C9308958C91892B8C93089529
:100DB000DF92EF92FF920F931F93A82FB0E0CD0127
:100DC00086569F4FFC01D490AA57BF4FFD018491D6
:100DD000662311F490E001C09D2D79018A0143E062
:100DE000EE0CFF1C001F111F4A95D1F734E0169539
:100DF0000795F794E7943A95D1F7682F70E0660F5E
:100E0000771F64587F4F20E030E040E050E0FB0166
:100E1000A591B4910AC02E153F054007510709F46A
:100E200040C02F5F3F4F4F4F5F4F8C918D218917EF
:100E300091F30AC02E153F054007510791F12F5F2E
:100E40003F4F4F4F5F4F03C0FB01A591B4918C9171
:100E50008D21891779F720E030E040E050E0FB0178
:100E6000A591B49104C02F5F3F4F4F4F5F4F8C91BE
:100E70008D218917C1F3CA01B9012AE030E040E0B1
:100E800050E00E94380A9B01AC01205F3F4F4F4F5A
:100E90005F4F83E056954795379527958A95D1F70B
:100EA00004C020E030E040E050E0B901CA011F91E9
:100EB0000F91FF90EF90DF9008951F920F920FB661
:100EC0000F9211242F933F934F935F936F937F93D0
:100ED0008F939F93AF93BF93EF93FF934091C6007F
:100EE000E0916E02F0916F02CF01019660E870E030
:100EF0000E94570A9C0180917002909171022817FC
:100F0000390739F0E251FE4F408330936F0220934E
:100F10006E02FF91EF91BF91AF919F918F917F9161
:100F20006F915F914F913F912F910F900FBE0F9056
:100F30001F9018955F926F927F928F929F92AF92BF
:100F4000BF92CF92DF92EF92FF920F931F93CF93B6
:100F5000DF93EC013A014B01413281EA580787E007
:100F6000680780E078070CF07FC060E472E48FE0EF
:100F700090E0A40193010E948C0A2150304040402F
:100F80005040CA01B90122E030E040E050E00E9448
:100F90008C0A59016A01A60195012095309540956A
:100FA000509594E0220F331F441F551F9A95D1F797
:100FB00060E072E18AE790E00E948C0ACA01B90100
:100FC0002FEF30E040E050E00E94380AA401930186
:100FD0000E948C0AC90181509F4F181619061CF4F3
:100FE000522E5A9403C055245394521A60E874E860
:100FF0008EE190E0A40193010E948C0A21503040C0
:1010000040405040CA01B90122E030E040E050E0E9
:101010000E948C0A209530954095509583E0220FD0
:10102000331F441F551F8A95D1F760E072E18AE7AC
:1010300090E00E948C0ACA01B9012FEF30E040E035
:1010400050E00E94380AA40193010E948C0AC90151
:1010500081509F4F181619061CF4822F815002C030
:1010600081E0821B851500F5E885F98581E090E037
:101070000A8802C0880F991F0A94E2F7808360E80B
:1010800074E88EE190E0A40193010E948C0A215043
:10109000304040405040CA01B90122E030E040E019
:1010A00050E00E948C0A04C0E885F9851082950101
:1010B000EC81FD813083EE81FF812083EA85FB8511
:1010C000208141E050E0CA010E8402C0880F991FC0
:1010D0000A94E2F7282B2083EA85FB852081CA0148
:1010E0000F8402C0880F991F0A94E2F7282B2083EF
:1010F000EA85FB858081088802C0440F551F0A9449
:10110000E2F7842B8083DF91CF911F910F91FF90A5
:10111000EF90DF90CF90BF90AF909F908F907F9097
:101120006F905F900895FC01A085B18521898C9115
:1011300090E0022E02C0959587950A94E2F780FF11
:10114000F6CF0484F585E02D6083089585E291E073
:1011500090937302809372028EEE91E090937502E9
:101160008093740285EC90E09093770280937602EE
:1011700084EC90E0909379028093780280EC90E088
:1011800090937B0280937A0281EC90E090937D02B1
:1011900080937C0286EC90E090937F0280937E02A5
:1011A00084E08093800283E08093810287E08093D3
:1011B000820285E08093830281E080938402089517
:1011C0000F931F93CF93DF938C01EB0109C02196FE
:1011D000D801ED91FC910190F081E02DC8010995B5
:1011E00068816623A1F7DF91CF911F910F91089538
:1011F000EF92FF920F931F93CF93DF938C017B01AC
:10120000EA010CC0D7016D917D01D801ED91FC91EF
:101210000190F081E02DC80109952197209791F761
:10122000DF91CF911F910F91FF90EF900895DC0116
:10123000ED91FC910280F381E02D099508950F93C3
:101240001F938C01DC01ED91FC910190F081E02D68
:101250006DE00995D801ED91FC910190F081E02DB0
:10126000C8016AE009951F910F9108950F931F938C
:101270008C010E941709C8010E941F091F910F913C
:1012800008952F923F924F925F926F927F928F922A
:101290009F92AF92BF92CF92DF92EF92FF920F9305
:1012A0001F93DF93CF93CDB7DEB7A0970FB6F89417
:1012B000DEBF0FBECDBF1C016A017B014115510588
:1012C0006105710549F4DC01ED91FC910190F0811B
:1012D000E02D60E3099554C0882499245401422EDE
:1012E00055246624772401E010E00C0F1D1F080D23
:1012F000191DC701B601A30192010E946A0AF801F3
:1013000060830894811C911CA11CB11CC701B6010B
:10131000A30192010E946A0AC901DA016C017D01F0
:10132000C114D104E104F104F1F681E0E82EF12CBE
:10133000EC0EFD1EE80CF91C3E010894611C711CAA
:10134000D501C4010197A109B1096C01C818D908D8
:1013500014C0F601EE0DFF1D60816A3010F4605D6F
:1013600001C0695CD101ED91FC910190F081E02D0B
:10137000C10109950894E108F1086E147F0449F74A
:10138000A0960FB6F894DEBF0FBECDBFCF91DF9110
:101390001F910F91FF90EF90DF90CF90BF90AF9093
:1013A0009F908F907F906F905F904F903F902F9085
:1013B0000895EF92FF920F931F93CF93DF93EC0169
:1013C0007A018B0177FF0FC0E881F9810190F081EC
:1013D000E02D6DE2099510950095F094E094E11CE4
:1013E000F11C011D111DCE01B801A7012AE00E94C8
:1013F0004109DF91CF911F910F91FF90EF900895D8
:10140000AB01662757FD6095762F0E94D909089594
:101410000F931F938C01AB01662757FD6095762FC4
:101420000E94D909C8010E941F091F910F910895B8
:10143000DC012115310541F4ED91FC910190F08121
:10144000E02D642F099508952A30310519F40E9482
:10145000D90908950E94410908950F931F938C01A3
:101460000E94180AC8010E941F091F910F91089538
:10147000629FD001739FF001829FE00DF11D649F78
:10148000E00DF11D929FF00D839FF00D749FF00D04
:10149000659FF00D9927729FB00DE11DF91F639FA5
:1014A000B00DE11DF91FBD01CF011124089597FB77
:1014B000092E07260AD077FD04D049D006D0002097
:1014C0001AF4709561957F4F0895F6F79095819580
:1014D0009F4F0895A1E21A2EAA1BBB1BFD010DC050
:1014E000AA1FBB1FEE1FFF1FA217B307E407F507D4
:1014F00020F0A21BB30BE40BF50B661F771F881FB0
:10150000991F1A9469F760957095809590959B0145
:10151000AC01BD01CF01089597FB092E05260ED021
:1015200057FD04D0D7DF0AD0001C38F45095409501
:10153000309521953F4F4F4F5F4F0895F6F79095A7
:101540008095709561957F4F8F4F9F4F0895AA1B8F
:10155000BB1B51E107C0AA1FBB1FA617B70710F09E
:10156000A61BB70B881F991F5A95A9F780959095D0
:10157000BC01CD010895EE0FFF1F0590F491E02D01
:061580000994F894FFCF6E
:101586002C00446F6E65207769746820696E6974F3
:1015960000070008000500040002000B00B80BB8A5
:0C15A6000B000000009308E008F80800AB
:00000001FF
